:020000040800F2
:1000000008110120DD030008490400084904000824
:1000100049040008490400084904000800000000E1
:10002000000000000000000000000000490400087B
:1000300049040008000000004904000849040008C1
:10004000490400084904000849040008490400085C
:10005000490400084904000849040008490400084C
:10006000490400084904000849040008490400083C
:10007000490400084904000849040008490400082C
:10008000490400084904000849040008490400081C
:10009000490400084904000849040008490400080C
:1000A00049040008490400084904000849040008FC
:1000B00049040008490400084904000849040008EC
:1000C00049040008490400084904000849040008DC
:1000D00049040008490400084904000849040008CC
:1000E00049040008490400084904000849040008BC
:1000F00049040008490400084904000849040008AC
:10010000490400084904000849040008490400089B
:10011000490400084904000849040008490400088B
:10012000490400084904000849040008490400087B
:10013000490400084904000849040008490400086B
:10014000490400084904000849040008490400085B
:10015000490400084904000849040008490400084B
:10016000490400084904000849040008490400083B
:10017000490400084904000849040008490400082B
:10018000490400084904000880B58AB000AF7860CF
:1001900039604FF000037B624FF000033B624FF089
:1001A0000003FB614FF00003BB617B681B8A9BB2BD
:1001B0007B627B6A23F440537B623B68DB887A6A0C
:1001C00013437B627B6A9AB27B681A827B689B8945
:1001D0009BB27B627B6A23F4B05323F00C037B62F7
:1001E0003B689A883B681B8913439AB23B685B89DA
:1001F00013439BB27A6A13437B627B6A9AB27B6831
:100200009A817B689B8A9BB27B627B6A23F44073F2
:100210007B623B689B897A6A13437B627B6A9AB2F2
:100220007B689A8207F10803184601F05BF97A6847
:100230004FF48053C4F201039A4206D07A684FF417
:10024000A053C4F201039A4202D17B693B6201E0F0
:100250003B693B627B689B899BB29BB21BB2002BC4
:100260000FDA3A6A13464FEA83039B184FEA830278
:100270009A183B681B684FEA4303B2FBF3F3FB6138
:100280000EE03A6A13464FEA83039B184FEA830253
:100290009A183B681B684FEA8303B2FBF3F3FB61D8
:1002A000FA6948F21F53C5F2EB13A3FB02134FEA9E
:1002B00053134FEA03137B627B6A4FEA13134FF029
:1002C000640202FB03F3FA69D31ABB617B689B8962
:1002D0009BB29BB21BB2002B12DABB694FEAC3037D
:1002E00003F1320248F21F53C5F2EB13A3FB0213D2
:1002F0004FEA531303F007037A6A13437B6211E05A
:10030000BB694FEA031303F1320248F21F53C5F2EF
:10031000EB13A3FB02134FEA531303F00F037A6AA4
:1003200013437B627B6A9AB27B681A8107F12807C4
:10033000BD4680BD80B483B000AF78600B46FB70D3
:10034000FB78002B08D07B689B899BB243F4005359
:100350009AB27B689A8107E07B689B899BB223F401
:1003600000539AB27B689A8107F10C07BD4680BCA6
:10037000704700BF80B483B000AF78600B467B80CD
:100380007B884FEAC3534FEAD3539AB27B689A8073
:1003900007F10C07BD4680BC704700BF80B485B034
:1003A00000AF78600B467B804FF00003FB737B68E7
:1003B0001B889AB27B8813409BB2002B03D04FF06E
:1003C0000103FB7302E04FF00003FB73FB7B184655
:1003D00007F11407BD4680BC704700BF80B582B0EE
:1003E00000AF42F61803C0F600037B6040F2000342
:1003F000C2F200033B600BE07B681A683B681A603E
:100400003B6803F104033B607B6803F104037B60FA
:100410003A6840F21003C2F200039A42ECD3084853
:1004200008494FF000028842B8BF40F8042BFFF69D
:10043000FAAF00F00DF807F10807BD4680BD0000D7
:10044000100000200809012080B400AFFEE700BFC3
:1004500080B500AF01F08EFB00F028F800F064F8E2
:1004600000F026F94FF48050C4F202004FF008016A
:1004700001F00CFB4FF48050C4F202004FF08001F9
:1004800001F0F6FA00F0C8FF4FF48050C4F2020009
:100490004FF0080101F008FB4FF48050C4F2020055
:1004A0004FF0800101F000FBECE700BF80B500AF2A
:1004B0004FF010004FF0010101F0FAF840F6A403EC
:1004C000C2F201034FF001021A7140F6A403C2F216
:1004D00001034FF000029A7140F6A403C2F2010337
:1004E0004FF003025A7140F6A403C2F201034FF029
:1004F0000002DA7140F6A403C2F201034FF08C024D
:100500001A604FF48050C4F2020040F6A401C2F217
:10051000010101F00BFA4FF48050C4F202004FF0D9
:100520008C0101F0A5FA80BD80B500AF4FF0080046
:100530004FF0010101F0BCF84FF480204FF00101B1
:1005400001F00AF94FF44060C4F202004FF00801D4
:100550004FF0070201F0BAFA4FF44060C4F2020013
:100560004FF009014FF0070201F0B0FA40F6A40382
:10057000C2F201034FF000029A7140F6A403C2F2E6
:1005800001034FF00102DA7140F6A403C2F2010345
:100590004FF002021A7140F6A403C2F201034FF0B9
:1005A00002025A7140F6A403C2F201034FF48072B2
:1005B0001A604FF44060C4F2020040F6A401C2F297
:1005C000010101F0B3F940F6A403C2F201034FF4B4
:1005D00000721A6040F6A403C2F201034FF0020257
:1005E0001A714FF44060C4F2020040F6A401C2F256
:1005F000010101F09BF940F6AC03C2F201034FF494
:100600007A321A6040F6AC03C2F201034FF00002E6
:100610009A8040F6AC03C2F201034FF00002DA8088
:1006200040F6AC03C2F201034FF000021A8140F61B
:10063000AC03C2F201034FF000029A8140F6AC0312
:10064000C2F201034FF00C025A814FF49040C4F201
:10065000000040F6AC01C2F20101FFF795FD4FF436
:100660009040C4F200004FF00101FFF763FE80BD2F
:1006700080B584B000AF0346FB71FB79FB73FB7B55
:100680009BB24FF49040C4F200001946FFF772FE8F
:1006900000BF4FF49040C4F200004FF04001FFF75C
:1006A0007DFE0346002BF4D007F11007BD4680BD48
:1006B00080B500AF00F00CF800F0B4F845F620006B
:1006C00000F02CFA00F012FB00F092FE80BD00BF9B
:1006D00080B500AF4FF002004FF0010101F03CF88F
:1006E0004FF004004FF0010100F0E2FF40F6A403D8
:1006F000C2F201034FF480721A6040F6A403C2F202
:1007000001034FF002021A7140F6A403C2F2010382
:100710004FF003025A7140F6A403C2F201034FF0F6
:1007200000029A7140F6A403C2F201034FF00102E5
:10073000DA714FF40060C4F2020040F6A401C2F284
:10074000010101F0F3F84FF40060C4F202004FF031
:1007500008014FF0020201F0B9F945F63003C2F288
:1007600000034FF003025A6045F63003C2F2000363
:100770004FF000021A8045F63003C2F200034FF03A
:1007800000021A8145F63003C2F200034FF0000266
:100790005A804FF48060C4F2000045F63001C2F286
:1007A000000101F0D3FE40F68003C2F201034FF0D6
:1007B00060021A8040F68003C2F201034FF000028B
:1007C0009A8140F68003C2F201034FF001025A8081
:1007D00040F68003C2F201034FF002029A604FF428
:1007E0008060C4F2000040F68001C2F2010101F015
:1007F00067FF4FF48060C4F200004FF0080101F081
:10080000EFFF4FF48060C4F200004FF0010101F0EF
:1008100017FF4FF48060C4F200004FF0010101F0B7
:100820002FFF80BD80B500AF4FF01F004FF00101DA
:1008300000F03EFF4FF00000C4F202004FF0040150
:100840004FF00D0201F042F94FF00000C4F2020037
:100850004FF006014FF00D0201F038F94FF48060BF
:10086000C4F202004FF006014FF00D0201F02EF924
:100870004FF48060C4F202004FF007014FF00D0208
:1008800001F024F94FF40060C4F202004FF00601B9
:100890004FF00D0201F01AF94FF40060C4F20200AB
:1008A0004FF007014FF00D0201F010F94FF4006016
:1008B000C4F202004FF00A014FF00D0201F006F9F8
:1008C0004FF40060C4F202004FF00C014FF00D0233
:1008D00001F0FCF84FF48050C4F202004FF0000128
:1008E0004FF00D0201F0F2F84FF48050C4F2020014
:1008F0004FF001014FF00D0201F0E8F84FF4805085
:10090000C4F202004FF004014FF00D0201F0DEF8D6
:100910004FF48050C4F202004FF005014FF00D0279
:1009200001F0D4F84FF48050C4F202004FF00601F9
:100930004FF00D0201F0CAF840F6A403C2F2010321
:100940004FF002021A7140F6A403C2F201034FF005
:1009500003025A7140F6A403C2F201034FF00002F1
:100960009A7140F6A403C2F201034FF00102DA715A
:1009700040F6A403C2F201034FF050021A604FF098
:100980000000C4F2020040F6A401C2F2010100F02E
:10099000CDFF40F6A403C2F201034FF0C0021A607B
:1009A0004FF48060C4F2020040F6A401C2F20101DB
:1009B00000F0BCFF40F6A403C2F201034FF4A652BC
:1009C0001A604FF40060C4F2020040F6A401C2F2C3
:1009D000010100F0ABFF40F6A403C2F201034FF0A7
:1009E00073021A604FF48050C4F2020040F6A40172
:1009F000C2F2010100F09AFF4FF480004FF00101B4
:100A000000F0AAFE4FF002004FF0010100F050FE8E
:100A10004FF48060C4F202004FF00A014FF004026C
:100A200001F054F84FF48060C4F202004FF00B0163
:100A30004FF0040201F04AF840F6A403C2F20103A9
:100A40004FF002021A7140F6A403C2F201034FF004
:100A500000025A7140F6A403C2F201034FF00102F2
:100A60009A7140F6A403C2F201034FF00002DA715A
:100A700040F6A403C2F201034FF440621A604FF43F
:100A80008060C4F2020040F6A401C2F2010100F04D
:100A90004DFF4FF4B040C4F2000001F049FB4FF4A9
:100AA000B040C4F200004FF0010101F05BFC40F6E1
:100AB0009403C2F201034FF000029A8040F69403BF
:100AC000C2F201034BF6FF72DA8040F69403C2F2E1
:100AD00001034FF0FE021A8140F69403C2F20103B3
:100AE0004FF480625A8140F69403C2F201034FF43E
:100AF00080429A8140F69403C2F2010348F2A06258
:100B0000C0F201021A604FF4B040C4F2000040F697
:100B10009401C2F2010101F04FFB80BD80B582B0AB
:100B200000AF0346FB804BF25C03C2F200034FF0C0
:100B300000021A604FF001004FF0010100F0E2FDE9
:100B400040F6BC03C2F201034FF000021A8040F6E7
:100B5000BC03C2F201034FF000025A8040F6BC030E
:100B6000C2F201034FF000029A8040F6BC03C2F2C9
:100B700001034FF00002DA8040F6BC03C2F2010329
:100B80004FF000021A8140F6BC03C2F201034FF09D
:100B900000025A8140F6BC03C2F201034FF000028A
:100BA0009A8140F6BC00C2F2010000F029FE4FF429
:100BB00080004FF0010100F07BFD46F22840C4F2B6
:100BC000020001F0E5F840F6CC03C2F201034FF059
:100BD00000721A6040F6CC03C2F201034FF0280203
:100BE000C5F205025A6045F63C02C2F2000240F628
:100BF000CC03C2F201039A6040F6CC03C2F20103B7
:100C00004FF00002DA60FB884FEA93039BB21A466A
:100C100040F6CC03C2F201031A6140F6CC03C2F2E3
:100C200001034FF000025A6140F6CC03C2F2010307
:100C30004FF480629A6140F6CC03C2F201034FF494
:100C40008052DA6140F6CC03C2F201034FF48042D5
:100C50001A6240F6CC03C2F201034FF480725A626A
:100C600040F6CC03C2F201034FF400329A6240F620
:100C7000CC03C2F201034FF00002DA6240F6CC036B
:100C8000C2F201034FF003021A6340F6CC03C2F232
:100C900001034FF000025A6340F6CC03C2F2010395
:100CA0004FF000029A6340F21003C2F2000346F2D2
:100CB0002840C4F2020019464FF0000201F0FEF98C
:100CC00046F22840C4F202004FF0010101F014FA8C
:100CD00046F22840C4F2020040F6CC01C2F2010103
:100CE00001F078F907F10807BD4680BD80B58EB0E8
:100CF00000AF4FF4C473FB864FF43C73BB864FF4D4
:100D0000F0737B864FF43C733B864FF4F073FB85A6
:100D1000BB8EC3F5527303F10303BB854FF00A0387
:100D20007B853B8EC3F5527303F103033B854FF084
:100D30000A03FB8440F20A33BB8440F205337B8410
:100D40004FF001033B844FF4F073FB834FF04003FB
:100D5000BB834FF480537B834FF03A033B8340F2D5
:100D60000323FB824FF48073BB824FF003037B822B
:100D700040F2BB133B8240F2D913FB814FF4B273B4
:100D8000BB814FF4F0737B814FF001033B844FF044
:100D90008003FB834FF032033B8340F20223FB824C
:100DA0004FF00003BB8240F203337B8240F2BB135F
:100DB0003B8240F2D913FB814FF4B273BB814FF4F5
:100DC000F0737B814FF000033B814FF000033B81C8
:100DD0004FF0000000F0EEFA0346FB80FA8841F283
:100DE00024339A4240F0DC80FB8E4FF00700194616
:100DF00000F096F9BB8E4FF00400194600F090F910
:100E00007B8E4FF00300194600F08AF9BB8D4FF03E
:100E10000500194600F084F97B8D4FF00600194655
:100E200000F07EF9BB8C4FF00D00194600F078F908
:100E3000BB8EC3F53C734FEAD372D3184FEA6303FA
:100E40009BB203F101039BB24FF00100194600F081
:100E500067F97B8EC3F5F0734FEAD372D3184FEA6C
:100E600063039BB203F104039BB24FF002001946E7
:100E700000F056F93B8A4FF00800194600F050F98F
:100E8000FB894FF00900194600F04AF9BB894FF081
:100E90000A00194600F044F97B894FF032001946E8
:100EA00000F03EF93B8E4FF0CC00194600F038F9C7
:100EB000FB8D4FF0CB00194600F032F93B8D4FF01F
:100EC000CD00194600F02CF9FB8C4FF0CE001946EE
:100ED00000F026F97B8C4FF00E00194600F020F947
:100EE0004FF0C9004FF0010100F01AF94FF0CA00AD
:100EF0004FF0040100F014F93B8A4FF0CF0019467F
:100F000000F00EF9FB894FF0D000194600F008F907
:100F1000BB894FF0D100194600F002F97B894FF0F0
:100F20003A00194600F0FCF83B894FF07000194672
:100F300000F0F6F87B8A4FF0AF00194600F0F0F8A9
:100F4000BB8A4FF00F00194600F0EAF83B8C4FF0D7
:100F5000AC00194600F0E4F8FB8B4FF0AD001946E9
:100F600000F0DEF8BB8B4FF0AB00194600F0D8F86C
:100F70007B8B4FF0B000194600F0D2F83B8B4FF05E
:100F8000A500194600F0CCF8FB8A4FF01C0019466A
:100F900000F0C6F84FF00C004FF0010100F0C0F86F
:100FA00007F13807BD4680BD80B584B000AF02466A
:100FB0000B46FA807B7142F21073FB604FF4B04035
:100FC000C4F200004FF0010101F0ECF942F210739D
:100FD000FB600EE0FB68002B14BF00230123DBB293
:100FE000FA6802F1FF32FA60002B02D04FF0FF03E3
:100FF00091E04FF4B040C4F200004FF00101C0F2A4
:10100000030101F06BFA0346002BE3D04FF4B0402C
:10101000C4F200004FF0B8014FF0000201F002FAF4
:1010200042F21073FB600EE0FB68002B14BF00233C
:101030000123DBB2FA6802F1FF32FA60002B02D022
:101040004FF0FF0367E04FF4B040C4F200004FF0F0
:101050008201C0F2070101F041FA0346002BE3D000
:10106000FB88DBB24FF4B040C4F20000194601F037
:1010700017FA42F21073FB600EE0FB68002B14BFFE
:1010800000230123DBB2FA6802F1FF32FA60002B81
:1010900002D04FF0FF033EE04FF4B040C4F2000036
:1010A0004FF08401C0F2070101F018FA0346002B4B
:1010B000E3D07B794FF4B040C4F20000194601F050
:1010C000EFF942F21073FB600EE0FB68002B14BFD7
:1010D00000230123DBB2FA6802F1FF32FA60002B31
:1010E00002D04FF0FF0316E04FF4B040C4F200000E
:1010F0004FF08401C0F2070101F0F0F90346002B24
:10110000E3D04FF4B040C4F200004FF0010101F011
:1011100069F94FF00003184607F11007BD4680BD7E
:1011200080B584B000AF02460B46FA80BB80BB8816
:101130004FEA13239BB2DBB2FA8810461946FFF739
:1011400033FF0346FB73BB88DBB24FF0F000194658
:10115000FFF72AFF03461A46FB7B1343FB73FB7B17
:10116000184607F11007BD4680BD00BF80B584B0AA
:1011700000AF0346FB8042F21073FB604FF00003A8
:10118000FB724FF4B040C4F200004FF0010101F0D7
:1011900009F942F21073FB600EE0FB68002B14BFEC
:1011A00000230123DBB2FA6802F1FF32FA60002B60
:1011B00002D04FF0FF03F8E04FF4B040C4F200005B
:1011C0004FF00101C0F2030101F088F90346002B42
:1011D000E3D04FF4B040C4F200004FF0B9014FF03B
:1011E000000201F01FF942F21073FB600EE0FB6891
:1011F000002B14BF00230123DBB2FA6802F1FF3297
:10120000FA60002B02D04FF0FF03CEE04FF4B04065
:10121000C4F200004FF08201C0F2070101F05EF954
:101220000346002BE3D0FB88DBB24FF4B040C4F29E
:101230000000194601F034F942F21073FB600EE031
:10124000FB68002B14BF00230123DBB2FA6802F114
:10125000FF32FA60002B02D04FF0FF03A5E04FF4FD
:10126000B040C4F200004FF08401C0F2070101F069
:1012700035F90346002BE3D04FF4B043C4F200032A
:101280004FF4B042C4F20002928A92B242F48062F9
:1012900092B29A824FF4B040C4F200004FF00101C4
:1012A00001F080F842F21073FB600EE0FB68002B47
:1012B00014BF00230123DBB2FA6802F1FF32FA60A7
:1012C000002B02D04FF0FF036FE04FF4B040C4F2A8
:1012D00000004FF00101C0F2030101F0FFF80346E6
:1012E000002BE3D04FF4B040C4F200004FF0B9013E
:1012F0004FF0010201F096F842F21073FB600EE02D
:10130000FB68002B14BF00230123DBB2FA6802F153
:10131000FF32FA60002B02D04FF0FF0345E04FF49C
:10132000B040C4F200004FF00201C0F2030101F02E
:10133000D5F80346002BE3D04FF4B040C4F20000D0
:101340004FF0000101F08CF842F21073FB600EE0E8
:10135000FB68002B14BF00230123DBB2FA6802F103
:10136000FF32FA60002B02D04FF0FF031DE04FF474
:10137000B040C4F200004FF04001C0F2030101F0A0
:10138000ADF80346002BE3D04FF4B040C4F20000A8
:101390004FF0010101F026F84FF4B040C4F2000014
:1013A00001F08EF80346FB72FB7A184607F110072E
:1013B000BD4680BD80B584B000AF0346FB71FB79AC
:1013C0009BB21846FFF7D2FE03464FEA0323FB8188
:1013D0004FF0F000FFF7CAFE03461A46FB8913439D
:1013E000FB81FB89184607F11007BD4680BD00BF91
:1013F00080B500AF46F22840C4F202004FF0010170
:1014000000F040FE4FF0010000F044FA4FF0010000
:1014100000F066FA80BD00BF80B582B000AF4FF02B
:1014200000037B6026E04FF000033B601BE07B681D
:101430004FF0BC0202FB03F23B68D2187B684FF00E
:10144000BC0101FB03F13B68C91845F63C03C2F23D
:101450000003595C4BF26003C2F2000399543B68ED
:1014600003F101033B603B68BB2BE0D97B6803F1D0
:1014700001037B607B68772BD5D94FF0FF00FFF726
:10148000F7F84FF00000FFF7F3F84FF00000FFF718
:10149000EFF84FF000037B601DE04FF000033B606E
:1014A00012E07B684FF0BC0202FB03F23B68D218EB
:1014B0004BF26003C2F200039B5C1846FFF7D8F8BA
:1014C0003B6803F101033B603B68BB2BE9D97B68B8
:1014D00003F101037B607B68772BDED907F10807F6
:1014E000BD4680BD80B489B000AF78604FF0000386
:1014F000BB614FF000037B614FF00003FB614FF0D5
:1015000002033B614FF00003FB604FF00203BB603E
:101510004FF46053C4F202039B6803F00C03BB61F9
:10152000BB69042B0AD0082B0FD0002B60D17A683E
:101530004FF45853C0F26E13136060E07A6847F6B8
:101540004003C0F27D13136059E04FF46053C4F2BE
:1015500002035B6803F480034FEA9353FB604FF48C
:101560006053C4F202035B6803F03F03BB60FB6897
:10157000002B14D047F64003C0F27D13BA68B3FBCA
:10158000F2F24FF46053C4F20203596847F6C07395
:101590000B404FEA931303FB02F3FB6113E04FF49C
:1015A0005853C0F26E13BA68B3FBF2F24FF46053B3
:1015B000C4F20203596847F6C0730B404FEA931315
:1015C00003FB02F3FB614FF46053C4F202035B6858
:1015D00003F440334FEA134303F101034FEA43039B
:1015E0003B61FA693B69B2FBF3F27B681A6006E083
:1015F0007A684FF45853C0F26E13136000BF4FF473
:101600006053C4F202039B6803F0F003BB61BB6943
:101610004FEA1313BB6140F20003C2F20003BA6940
:101620009B181B78DBB27B617B681A687B6922FAA6
:1016300003F27B685A604FF46053C4F202039B6864
:1016400003F4E053BB61BB694FEA9323BB6140F2F3
:101650000003C2F20003BA699B181B78DBB27B61FE
:101660007B685A687B6922FA03F27B689A604FF4C0
:101670006053C4F202039B6803F46043BB61BB691F
:101680004FEA5333BB6140F20003C2F20003BA6970
:101690009B181B78DBB27B617B685A687B6922FAF6
:1016A00003F27B68DA6007F12407BD4680BC70470F
:1016B00080B483B000AF78600B46FB70FB78002BE2
:1016C0000CD04FF46053C4F202034FF46052C4F2E2
:1016D0000202116B7A680A431A630DE04FF46053FB
:1016E000C4F202034FF46052C4F20202116B7A6832
:1016F0006FEA02020A401A6307F10C07BD4680BC7C
:10170000704700BF80B483B000AF78600B46FB70B9
:10171000FB78002B0CD04FF46053C4F202034FF45B
:101720006052C4F20202516B7A680A435A630DE0B8
:101730004FF46053C4F202034FF46052C4F2020249
:10174000516B7A686FEA02020A405A6307F10C078C
:10175000BD4680BC704700BF80B483B000AF7860E6
:101760000B46FB70FB78002B0CD04FF46053C4F297
:1017700002034FF46052C4F20202116C7A680A4309
:101780001A640DE04FF46053C4F202034FF4605248
:10179000C4F20202116C7A686FEA02020A401A640B
:1017A00007F10C07BD4680BC704700BF80B483B012
:1017B00000AF78600B46FB70FB78002B0CD04FF429
:1017C0006053C4F202034FF46052C4F20202116A81
:1017D0007A680A431A620DE04FF46053C4F20203C0
:1017E0004FF46052C4F20202116A7A686FEA020290
:1017F0000A401A6207F10C07BD4680BC704700BF63
:1018000080B485B000AF78604FF00003FB604FF00C
:101810000003C5F205034FF00002C5F2050212688D
:1018200022F4804222F001021A604FF00003C5F258
:1018300005031B68FB60FB6823F47F6323F002034E
:10184000FB607B681A887B685B8813439AB27B686D
:101850009B8813439AB27B68DB8813439AB27B68F8
:101860001B8913439AB27B685B8913439AB27B68E6
:101870009B8913439BB2FA681343FB604FF000034C
:10188000C5F20503FA681A6007F11407BD4680BC6B
:10189000704700BF80B483B000AF0346FB71FB7993
:1018A000002B0CD04FF00003C5F205034FF00002EF
:1018B000C5F20502126842F480421A600BE04FF054
:1018C0000003C5F205034FF00002C5F205021268DD
:1018D00022F480421A6007F10C07BD4680BC7047B5
:1018E00080B483B000AF0346FB71FB79002B0CD0B2
:1018F0004FF00003C5F205034FF00002C5F20502E8
:10190000126842F001021A600BE04FF00003C5F2CA
:1019100005034FF00002C5F20502126822F0010231
:101920001A6007F10C07BD4680BC704780B487B0D1
:1019300000AF786039604FF000037B614FF0000327
:101940003B614FF00003FB604FF000037B6186E0DA
:101950007B694FF0010202FA03F33B613B681A68AE
:101960003B691340FB60FA683B699A4273D17B681C
:101970001A687B694FEA43034FF0030101FA03F34E
:101980006FEA03031A407B681A607B681A683B6839
:101990001B7919467B694FEA430301FA03F31A43A3
:1019A0007B681A603B681B79012B03D03B681B796D
:1019B000022B34D17B689A687B694FEA43034FF06E
:1019C000030101FA03F36FEA03031A407B689A608C
:1019D0007B689A683B685B7919467B694FEA4303E9
:1019E00001FA03F31A437B689A607B685A687B6943
:1019F0009BB24FF0010101FA03F36FEA03031A40AF
:101A00007B685A607B685A683B689B7919467B699A
:101A10009BB201FA03F39BB21A437B685A607B685E
:101A2000DA687B699BB24FEA43034FF0030101FA86
:101A300003F36FEA03031A407B68DA607B68DA68B5
:101A40003B68DB7919467B694FEA430301FA03F3EC
:101A50001A437B68DA607B6903F101037B617B6970
:101A60000F2B7FF675AF07F11C07BD4680BC704792
:101A700080B483B000AF78600B467B807B687A8847
:101A80001A8307F10C07BD4680BC704780B483B051
:101A900000AF78600B467B807B687A885A8307F1B9
:101AA0000C07BD4680BC704780B483B000AF78603F
:101AB0000B467B807B685A697B885A407B685A61F9
:101AC00007F10C07BD4680BC704700BF80B485B0ED
:101AD00000AF786013460A467A807B704FF00003AF
:101AE000FB604FF00003BB607A787B8803F007034C
:101AF0004FEA830302FA03F3FB607B884FEAD303C8
:101B00009BB21A467B884FEAD3039BB219467B6887
:101B100001F1080153F821107B8803F007034FEA15
:101B200083034FF00F0000FA03F36FEA0303194039
:101B30007B6802F1080243F822107B884FEAD30346
:101B40009BB21A467B6802F1080253F82220FB6818
:101B50001343BB607B884FEAD3039BB21A467B6872
:101B600002F10802B96843F8221007F11407BD46D4
:101B700080BC704780B500AF4FF46053C4F20203DD
:101B80004FF46052C4F20202126842F001021A607D
:101B90004FF46053C4F202034FF000029A604FF416
:101BA0006053C4F202034FF46052C4F2020212689E
:101BB00022F0847222F480321A604FF46053C4F22F
:101BC000020343F21002C2F200425A604FF4605323
:101BD000C4F202034FF46052C4F20202126822F40B
:101BE00080221A604FF46053C4F202034FF00002E7
:101BF000DA6000F009F84FF46D43CEF200034FF0C5
:101C000000629A6080BD00BF80B483B000AF4FF027
:101C100000037B604FF000033B604FF46053C4F25D
:101C200002034FF46052C4F20202126842F480329E
:101C30001A604FF46053C4F202031B6803F40033CC
:101C40003B607B6803F101037B603B68002B03D1A1
:101C50007B68B3F5A06FECD14FF46053C4F202037C
:101C60001B6803F40033002B03D04FF001033B60EB
:101C700002E04FF000033B603B68012B40F08280A4
:101C80004FF46053C4F202034FF46052C4F20202F4
:101C9000126C42F080521A644FF4E043C4F2000325
:101CA0004FF4E042C4F20002126842F480421A602B
:101CB0004FF46053C4F202034FF46052C4F20202C4
:101CC00092689A604FF46053C4F202034FF460527A
:101CD000C4F20202926842F400429A604FF46053E8
:101CE000C4F202034FF46052C4F20202926842F45A
:101CF000A0529A604FF46053C4F2020345F21842B6
:101D0000C0F240725A604FF46053C4F202034FF4C1
:101D10006052C4F20202126842F080721A6000BF80
:101D20004FF46053C4F202031B6803F00073002BEE
:101D3000F6D04FF47053C4F2020340F205621A6009
:101D40004FF46053C4F202034FF46052C4F2020233
:101D5000926822F003029A604FF46053C4F20203C7
:101D60004FF46052C4F20202926842F002029A609A
:101D700000BF4FF46053C4F202039B6803F00C03EE
:101D8000082BF6D107F10C07BD4680BC704700BF99
:101D900080B483B000AF78607B681B6823F00102D9
:101DA0007B681A607B684FF000021A607B684FF016
:101DB00000025A607B684FF000029A607B684FF027
:101DC0000002DA607B684FF000021A617B684FF016
:101DD00021025A617A6846F21003C4F202039A4261
:101DE00007D14FF4C043C4F202034FF03D029A60A2
:101DF000EBE07A6846F22803C4F202039A4207D164
:101E00004FF4C043C4F202034FF474629A60DCE002
:101E10007A6846F24003C4F202039A4207D14FF4B3
:101E2000C043C4F202034FF474129A60CDE07A68A2
:101E300046F25803C4F202039A4207D14FF4C0435A
:101E4000C4F202034FF074629A60BEE07A6846F210
:101E50007003C4F202039A4209D14FF4C043C4F2A2
:101E600002034FF03D02C2F20002DA60ADE07A6890
:101E700046F28803C4F202039A4209D14FF4C043E8
:101E8000C4F202034FF47462C2F20002DA609CE012
:101E90007A6846F2A003C4F202039A4209D14FF4D1
:101EA000C043C4F202034FF00002C2F23D02DA6006
:101EB0008BE07A6846F2B803C4F202039A4207D173
:101EC0004FF4C043C4F202034FF03D52DA607CE0AD
:101ED0007A6846F21043C4F202039A4207D14FF4E3
:101EE000C843C4F202034FF03D029A606DE07A6885
:101EF00046F22843C4F202039A4207D14FF4C84382
:101F0000C4F202034FF474629A605EE07A6846F2AB
:101F10004043C4F202039A4207D14FF4C843C4F2CB
:101F200002034FF474129A604FE07A6846F2584305
:101F3000C4F202039A4207D14FF4C843C4F2020329
:101F40004FF074629A6040E07A6846F27043C4F2DF
:101F500002039A4209D14FF4C843C4F202034FF07E
:101F60003D02C2F20002DA602FE07A6846F288434E
:101F7000C4F202039A4209D14FF4C843C4F20203E7
:101F80004FF47462C2F20002DA601EE07A6846F230
:101F9000A043C4F202039A4209D14FF4C843C4F2E9
:101FA00002034FF00002C2F23D02DA600DE07A68EF
:101FB00046F2B843C4F202039A4206D14FF4C84332
:101FC000C4F202034FF03D52DA6007F10C07BD4640
:101FD00080BC704780B485B000AF786039604FF046
:101FE0000003FB607B681B68FB60FA6848F23F03F4
:101FF000CFF21C031340FB603B681A683B68DB6848
:102000001A433B685B691A433B689B691A433B6808
:10201000DB691A433B681B6A1A433B685B6A1A43D5
:102020003B689B6A1A433B685B6B1A433B689B6B3C
:102030001343FA681343FB607B68FA681A607B6895
:102040005B69FB60FB6823F00703FB603B68DA6AAF
:102050003B681B6B1343FA681343FB607B68FA68A9
:102060005A613B681A697B685A603B685A687B68AA
:102070009A603B689A687B68DA6007F11407BD468E
:1020800080BC704780B483B000AF78600B46FB70B3
:10209000FB78002B06D07B681B6843F001027B684D
:1020A0001A6005E07B681B6823F001027B681A60F8
:1020B00007F10C07BD4680BC704700BF80B485B0F7
:1020C00000AFF860B9607A607B68002B06D0FB68CF
:1020D0001B6843F40022FB681A6005E0FB681B687C
:1020E00023F40022FB681A60FB68BA681A6107F1E2
:1020F0001407BD4680BC704780B483B000AF7860E1
:102100000B46FB70FB78002B06D07B681B6843F402
:1021100080227B681A6005E07B681B6823F48022BC
:102120007B681A6007F10C07BD4680BC704700BF92
:1021300080B582B000AF78607A684FF4A843C4F2EB
:1021400000039A420CD14FF400104FF00101FFF749
:102150002DFB4FF400104FF00001FFF727FB26E0A6
:102160007A684FF4B043C4F200039A420CD14FF4A2
:1021700080004FF00101FFF719FB4FF480004FF092
:102180000001FFF713FB12E07A684FF4B843C4F282
:1021900000039A420BD14FF400004FF00101FFF70A
:1021A00005FB4FF400004FF00001FFF7FFFA07F1C5
:1021B0000807BD4680BD00BF80B58AB000AF78601B
:1021C00039604FF00003FB844FF000037B844FF035
:1021D0000403BB844FF49053C0F27A03FB617B6825
:1021E0009B88FB84FB8C23F03F03FB8407F10C03EB
:1021F0001846FFF777F97B69FB61FA694DF683634F
:10220000C4F21B33A3FB02134FEA93437B84FA8C83
:102210007B8C1343FB847B68FA8C9A807B681B88D9
:102220009BB223F001039AB27B681A804FF000033F
:10223000FB843B681A6848F2A063C0F201039A422B
:1022400018D83B681B684FEA4303FA69B2FBF3F303
:10225000BB84BB8C032B02D84FF00403BB84FA8CE5
:10226000BB8C1343FB847B8C03F101039AB27B6824
:102270001A844BE03B68DA884BF6FF739A420AD126
:102280003B681A6813464FEA43039B18FA69B2FB8E
:10229000F3F3BB8410E03B681A6813464FEA8303EC
:1022A0009B184FEA83029B18FA69B2FBF3F3BB84D5
:1022B000BB8C43F48043BB84BB8C4FEA03534FEA8F
:1022C0001353002B03D1BB8C43F00103BB84BA8CA6
:1022D000FB8C13439BB26FEA43436FEA5343FB8487
:1022E0007B8C4FF4967202FB03F244F6D353C1F297
:1022F000620383FB02134FEAA3114FEAE273CB1A86
:102300009BB203F101039AB27B681A847B68FA8C52
:102310009A837B681B889BB243F001039AB27B6867
:102320001A807B681B88FB84FB8C23F4816323F079
:102330000203FB843B689A883B685B8913439AB22B
:10234000FB8C1343FB847B68FA8C1A803B689A8968
:102350003B681B8913439AB27B681A8107F12807EF
:10236000BD4680BD80B483B000AF78600B46FB7083
:10237000FB78002B08D07B681B889BB243F00103DD
:102380009AB27B681A8007E07B681B889BB223F0B7
:1023900001039AB27B681A8007F10C07BD4680BC26
:1023A000704700BF80B483B000AF78600B46FB700D
:1023B000FB78002B08D07B681B889BB243F48073AA
:1023C0009AB27B681A8007E07B681B889BB223F473
:1023D00080739AB27B681A8007F10C07BD4680BCF7
:1023E000704700BF80B483B000AF78600B46FB70CD
:1023F000FB78002B08D07B681B889BB243F40073EA
:102400009AB27B681A8007E07B681B889BB223F432
:1024100000739AB27B681A8007F10C07BD4680BC36
:10242000704700BF80B483B000AF786013460A469F
:10243000FA70BB70BB78002B04D0FB7843F001032B
:10244000FB7003E0FB7823F00103FB70FB789AB28A
:102450007B681A8207F10C07BD4680BC704700BF3D
:1024600080B483B000AF78600B46FB70FB78002B24
:1024700008D07B681B889BB243F480639AB27B6868
:102480001A8007E07B681B889BB223F480639AB2B2
:102490007B681A8007F10C07BD4680BC704700BFFF
:1024A00080B483B000AF78600B46FB70FB789AB2C3
:1024B0007B681A8207F10C07BD4680BC704700BFDD
:1024C00080B483B000AF78607B681B8A9BB2DBB2BC
:1024D000184607F10C07BD4680BC704780B487B032
:1024E00000AF786039604FF000033B614FF00003AC
:1024F000FB604FF00003BB604FF00003FB757B688F
:102500009B8A9BB2FB607B681B8B9BB2BB60BB68EA
:102510004FEA0343BB60FA68BB68134323F07F4371
:102520003B613A693B681A403B689A4203D14FF0DD
:102530000103FB7502E04FF00003FB75FB7D1846BD
:1025400007F11C07BD4680BC704700BF80B485B052
:1025500000AF786039604FF00003FB817B681B8817
:10256000FB817A684FF00003C4F201039A421FD046
:102570007A684FF48063C4F201039A4218D07B68F2
:10258000B3F1804F14D07A684FF48063C4F2000333
:102590009A420DD07A684FF40063C4F200039A4265
:1025A00006D07A684FF44063C4F200039A4208D11F
:1025B000FB8923F07003FB813B685A88FB89134336
:1025C000FB817A684FF48053C4F200039A420FD023
:1025D0007A684FF4A053C4F200039A4208D0FB89F2
:1025E00023F44073FB813B681A89FB891343FB8109
:1025F0007B68FA891A803B685A687B68DA623B68B4
:102600001A887B681A857A684FF00003C4F20103C8
:102610009A4206D07A684FF48063C4F201039A426A
:1026200004D13B689B7A1A467B681A867B684FF018
:1026300001029A8207F11407BD4680BC704700BFB3
:1026400080B483B000AF78600B46FB70FB78002B42
:1026500008D07B681B889BB243F080039AB27B68EA
:102660001A8007E07B681B889BB223F080039AB234
:102670007B681A8007F10C07BD4680BC704700BF1D
:1026800080B483B000AF78600B46FB70FB78002B02
:1026900008D07B681B889BB243F001039AB27B6829
:1026A0001A8007E07B681B889BB223F001039AB273
:1026B0007B681A8007F10C07BD4680BC704700BFDD
:1026C00080B485B000AF786039604FF000037B8143
:1026D0004FF00003FB814FF00003BB817B681B8C34
:1026E0009BB223F480739AB27B681A847B681B8C3C
:1026F000FB817B689B88BB817B689B8B7B817B8913
:1027000023F070037B817B8923F003037B813B688B
:102710001A887B8913437B81FB8923F40073FB8137
:102720003B689B894FEA03239AB2FB891343FB81E1
:102730003B685B884FEA03239AB2FB891343FB8112
:102740007A684FF00003C4F201039A4206D07A6817
:102750004FF48063C4F201039A422FD1FB8923F422
:102760000063FB813B68DB894FEA03239AB2FB8954
:102770001343FB81FB8923F48063FB813B689B88C7
:102780004FEA03239AB2FB891343FB81BB8923F4ED
:102790008053BB81BB8923F40053BB813B681B8AF8
:1027A0004FEA03139AB2BB891343BB813B685B8A30
:1027B0004FEA03139AB2BB891343BB817B68BA8982
:1027C0009A807B687A899A833B689A687B68DA6327
:1027D0007B68FA891A8407F11407BD4680BC7047EC
:1027E00080B485B000AF78600B467B804FF000036B
:1027F000FB817B689B8BFB81FB8923F00803FB81BA
:10280000FA897B881343FB817B68FA899A8307F1F5
:082810001407BD4680BC7047AF
:10281800000000000102030401020304060708097E
:0400000508000000EF
:00000001FF
