:020000040800F2
:1000000008110120DD030008490400084904000824
:1000100049040008490400084904000800000000E1
:10002000000000000000000000000000490400087B
:1000300049040008000000004904000849040008C1
:10004000490400084904000849040008490400085C
:10005000490400084904000849040008490400084C
:10006000490400084904000849040008490400083C
:10007000490400084904000849040008490400082C
:10008000490400084904000849040008490400081C
:10009000490400084904000849040008490400080C
:1000A00049040008490400084904000849040008FC
:1000B00049040008490400084904000849040008EC
:1000C00049040008490400084904000849040008DC
:1000D00049040008490400084904000849040008CC
:1000E00049040008490400084904000849040008BC
:1000F00049040008490400084904000849040008AC
:10010000490400084904000849040008490400089B
:10011000490400084904000849040008490400088B
:10012000490400084904000849040008490400087B
:10013000490400084904000849040008490400086B
:10014000490400084904000849040008490400085B
:10015000490400084904000849040008490400084B
:10016000490400084904000849040008490400083B
:10017000490400084904000849040008490400082B
:10018000490400084904000880B58AB000AF7860CF
:1001900039604FF000037B624FF000033B624FF089
:1001A0000003FB614FF00003BB617B681B8A9BB2BD
:1001B0007B627B6A23F440537B623B68DB887A6A0C
:1001C00013437B627B6A9AB27B681A827B689B8945
:1001D0009BB27B627B6A23F4B05323F00C037B62F7
:1001E0003B689A883B681B8913439AB23B685B89DA
:1001F00013439BB27A6A13437B627B6A9AB27B6831
:100200009A817B689B8A9BB27B627B6A23F44073F2
:100210007B623B689B897A6A13437B627B6A9AB2F2
:100220007B689A8207F10803184600F059FA7A6849
:100230004FF48053C4F201039A4206D07A684FF417
:10024000A053C4F201039A4202D17B693B6201E0F0
:100250003B693B627B689B899BB29BB21BB2002BC4
:100260000FDA3A6A13464FEA83039B184FEA830278
:100270009A183B681B684FEA4303B2FBF3F3FB6138
:100280000EE03A6A13464FEA83039B184FEA830253
:100290009A183B681B684FEA8303B2FBF3F3FB61D8
:1002A000FA6948F21F53C5F2EB13A3FB02134FEA9E
:1002B00053134FEA03137B627B6A4FEA13134FF029
:1002C000640202FB03F3FA69D31ABB617B689B8962
:1002D0009BB29BB21BB2002B12DABB694FEAC3037D
:1002E00003F1320248F21F53C5F2EB13A3FB0213D2
:1002F0004FEA531303F007037A6A13437B6211E05A
:10030000BB694FEA031303F1320248F21F53C5F2EF
:10031000EB13A3FB02134FEA531303F00F037A6AA4
:1003200013437B627B6A9AB27B681A8107F12807C4
:10033000BD4680BD80B483B000AF78600B46FB70D3
:10034000FB78002B08D07B689B899BB243F4005359
:100350009AB27B689A8107E07B689B899BB223F401
:1003600000539AB27B689A8107F10C07BD4680BCA6
:10037000704700BF80B483B000AF78600B467B80CD
:100380007B884FEAC3534FEAD3539AB27B689A8073
:1003900007F10C07BD4680BC704700BF80B485B034
:1003A00000AF78600B467B804FF00003FB737B68E7
:1003B0001B889AB27B8813409BB2002B03D04FF06E
:1003C0000103FB7302E04FF00003FB73FB7B184655
:1003D00007F11407BD4680BC704700BF80B582B0EE
:1003E00000AF40F69C53C0F600037B6040F2000370
:1003F000C2F200033B600BE07B681A683B681A603E
:100400003B6803F104033B607B6803F104037B60FA
:100410003A6840F21003C2F200039A42ECD3084853
:1004200008494FF000028842B8BF40F8042BFFF69D
:10043000FAAF00F00DF807F10807BD4680BD0000D7
:10044000100000200809012080B400AFFEE700BFC3
:1004500080B500AF00F094FB00F01CF800F058F8F5
:100460004FF0550000F0F8F84FF00A0000F0F4F8F3
:100470004FF0410000F0F0F84FF48050C4F2020059
:100480004FF0080100F016FB4FF47A7000F004F909
:10049000E6E700BF80B500AF4FF010004FF001015C
:1004A00000F004FA40F6A403C2F201034FF08C02FC
:1004B0001A6040F6A403C2F201034FF001021A7160
:1004C00040F6A403C2F201034FF000029A7140F615
:1004D000A403C2F201034FF003025A7140F6A403D1
:1004E000C2F201034FF00002DA714FF48050C4F2FF
:1004F000020040F6A401C2F2010100F02BFA4FF411
:100500008050C4F202004FF08C0100F0C5FA80BDAB
:1005100080B500AF4FF008004FF0010100F0C6F9C0
:100520004FF480204FF0010100F0EAF94FF44060F1
:10053000C4F202004FF008014FF0070200F0CCFABD
:100540004FF44060C4F202004FF009014FF007027F
:1005500000F0C2FA40F6A403C2F201034FF4807225
:100560001A6040F6A403C2F201034FF000029A7130
:1005700040F6A403C2F201034FF00102DA7140F623
:10058000A403C2F201034FF002021A7140F6A40361
:10059000C2F201034FF002025A714FF44060C4F2FC
:1005A000020040F6A401C2F2010100F0D3F940F6C6
:1005B000A403C2F201034FF400721A6040F6A403D0
:1005C000C2F201034FF002021A714FF44060C4F20C
:1005D000020040F6A401C2F2010100F0BBF940F6AE
:1005E000AC03C2F201034FF416521A6040F6AC039A
:1005F000C2F201034FF000029A8040F6AC03C2F24F
:1006000001034FF00002DA8040F6AC03C2F20103AE
:100610004FF000021A8140F6AC03C2F201034FF022
:1006200000029A8140F6AC03C2F201034FF00C02C3
:100630005A814FF49040C4F2000040F6AC01C2F27F
:100640000101FFF7A1FD4FF49040C4F200004FF00C
:100650000101FFF76FFE80BD80B584B000AF034697
:10066000FB71FB79FB73FB7B9BB24FF49040C4F2B0
:1006700000001946FFF77EFE00BF4FF49040C4F221
:1006800000004FF04001FFF789FE0346002BF4D035
:1006900007F11007BD4680BD80B487B000AF786019
:1006A00041F21033FB604FF000037B610FE04FF02D
:1006B00000033B6103E03B6903F101033B613A69DD
:1006C000FB689A42F7D37B6903F101037B617A6986
:1006D0007B689A42EBD307F11C07BD4680BC70478C
:1006E00080B489B000AF78604FF00003BB614FF079
:1006F00000037B614FF00003FB614FF002033B619D
:100700004FF00003FB604FF00203BB604FF46053F7
:10071000C4F202039B6803F00C03BB61BB69042BAA
:100720000AD0082B0FD0002B60D17A684FF41053F9
:10073000C0F2F403136060E07A6847F64003C0F249
:100740007D13136059E04FF46053C4F202035B68F9
:1007500003F480034FEA9353FB604FF46053C4F2F9
:1007600002035B6803F03F03BB60FB68002B14D0FF
:1007700047F64003C0F27D13BA68B3FBF2F24FF4C0
:100780006053C4F20203596847F6C0730B404FEA46
:10079000931303FB02F3FB6113E04FF41053C0F219
:1007A000F403BA68B3FBF2F24FF46053C4F20203ED
:1007B000596847F6C0730B404FEA931303FB02F3EB
:1007C000FB614FF46053C4F202035B6803F44033EF
:1007D0004FEA134303F101034FEA43033B61FA6914
:1007E0003B69B2FBF3F27B681A6006E07A684FF46B
:1007F0001053C0F2F403136000BF4FF46053C4F20F
:1008000002039B6803F0F003BB61BB694FEA13135B
:10081000BB6140F20003C2F20003BA699B181B7867
:10082000DBB27B617B681A687B6922FA03F27B6822
:100830005A604FF46053C4F202039B6803F4E05320
:10084000BB61BB694FEA9323BB6140F20003C2F274
:100850000003BA699B181B78DBB27B617B685A681E
:100860007B6922FA03F27B689A604FF46053C4F20A
:1008700002039B6803F46043BB61BB694FEA5333D7
:10088000BB6140F20003C2F20003BA699B181B78F7
:10089000DBB27B617B685A687B6922FA03F27B6872
:1008A000DA6007F12407BD4680BC704780B483B08E
:1008B00000AF78600B46FB70FB78002B0CD04FF438
:1008C0006053C4F202034FF46052C4F20202116B8F
:1008D0007A680A431A630DE04FF46053C4F20203CE
:1008E0004FF46052C4F20202116B7A686FEA02029E
:1008F0000A401A6307F10C07BD4680BC704700BF71
:1009000080B483B000AF78600B46FB70FB78002B9F
:100910000CD04FF46053C4F202034FF46052C4F29F
:100920000202116C7A680A431A640DE04FF46053B6
:10093000C4F202034FF46052C4F20202116C7A68EE
:100940006FEA02020A401A6407F10C07BD4680BC38
:10095000704700BF80B487B000AF786039604FF057
:1009600000037B614FF000033B614FF00003FB602D
:100970004FF000037B6186E07B694FF0010202FAD1
:1009800003F33B613B681A683B691340FB60FA68FC
:100990003B699A4273D17B681A687B694FEA4303CB
:1009A0004FF0030101FA03F36FEA03031A407B6877
:1009B0001A607B681A683B681B7919467B694FEAA5
:1009C000430301FA03F31A437B681A603B681B79FF
:1009D000012B03D03B681B79022B34D17B689A68CA
:1009E0007B694FEA43034FF0030101FA03F36FEA17
:1009F00003031A407B689A607B689A683B685B795E
:100A000019467B694FEA430301FA03F31A437B68F3
:100A10009A607B685A687B699BB24FF0010101FACA
:100A200003F36FEA03031A407B685A607B685A68D5
:100A30003B689B7919467B699BB201FA03F39BB231
:100A40001A437B685A607B68DA687B699BB24FEA1D
:100A500043034FF0030101FA03F36FEA03031A4063
:100A60007B68DA607B68DA683B68DB7919467B690A
:100A70004FEA430301FA03F31A437B68DA607B69A8
:100A800003F101037B617B690F2B7FF675AF07F1E3
:100A90001C07BD4680BC704780B483B000AF78604F
:100AA0000B467B807B687A881A8307F10C07BD466A
:100AB00080BC704780B483B000AF78600B467B8009
:100AC0007B685A697B885A407B685A6107F10C073A
:100AD000BD4680BC704700BF80B485B000AF786071
:100AE00013460A467A807B704FF00003FB604FF09C
:100AF0000003BB607A787B8803F007034FEA830327
:100B000002FA03F3FB607B884FEAD3039BB21A46D9
:100B10007B884FEAD3039BB219467B6801F1080139
:100B200053F821107B8803F007034FEA83034FF04B
:100B30000F0000FA03F36FEA030319407B6802F128
:100B4000080243F822107B884FEAD3039BB21A466F
:100B50007B6802F1080253F82220FB681343BB6054
:100B60007B884FEAD3039BB21A467B6802F10802E6
:100B7000B96843F8221007F11407BD4680BC7047DE
:100B800080B500AF4FF46053C4F202034FF46052DB
:100B9000C4F20202126842F001021A604FF460537C
:100BA000C4F202034FF000029A604FF46053C4F2A3
:100BB00002034FF46052C4F20202126822F08472FF
:100BC00022F480321A604FF46053C4F2020343F2FD
:100BD0001002C2F200425A604FF46053C4F20203A2
:100BE0004FF46052C4F20202126822F480221A60AA
:100BF0004FF46053C4F202034FF00002DA6000F0D9
:100C000009F84FF46D43CEF200034FF000629A6092
:100C100080BD00BF80B483B000AF4FF000037B60A5
:100C20004FF000033B604FF46053C4F202034FF4F3
:100C30006052C4F20202126842F480321A604FF429
:100C40006053C4F202031B6803F400333B607B680B
:100C500003F101037B603B68002B03D17B68B3F594
:100C6000A06FECD14FF46053C4F202031B6803F48D
:100C70000033002B03D04FF001033B6002E04FF044
:100C800000033B603B68012B40F082804FF46053CF
:100C9000C4F202034FF46052C4F20202126C42F03A
:100CA00080521A644FF4E043C4F200034FF4E04270
:100CB000C4F20002126842F480421A604FF460539A
:100CC000C4F202034FF46052C4F2020292689A60C6
:100CD0004FF46053C4F202034FF46052C4F20202B4
:100CE000926842F400429A604FF46053C4F20203E7
:100CF0004FF46052C4F20202926842F4A0529A6029
:100D00004FF46053C4F2020345F21942C0F240723C
:100D10005A604FF46053C4F202034FF46052C4F2BD
:100D20000202126842F080721A6000BF4FF46053F2
:100D3000C4F202031B6803F00073002BF6D04FF4DB
:100D40007053C4F2020340F205621A604FF460531C
:100D5000C4F202034FF46052C4F20202926822F01D
:100D600003029A604FF46053C4F202034FF46052DE
:100D7000C4F20202926842F002029A6000BF4FF48D
:100D80006053C4F202039B6803F00C03082BF6D1F6
:0C0D900007F10C07BD4680BC704700BF97
:100D9C000000000001020304010203040607080915
:0400000508000000EF
:00000001FF
